:060000000A128A110E280D
:10000800FE00030EF2000408F3000A08F4000A12C6
:100018008A11782D0A128A11112883136F30FD0076
:100028000730FE006F30FF00653084000A128A1125
:1000380053270A128A11DA01DB01DC01DD01DE0136
:10004800DF01E001E101E201E301E401F701F80168
:1000580083010A128A11EA2E8312031331088039A8
:10006800B6003608BB003108B6003607B7003708B7
:10007800C100B01F402841284228411441080319F3
:10008800462847285628410A031D4B284C2854283F
:100098000030B1000030B0000030AF000030AE00DA
:1000A800B0175E280030B1000030B0000030AF005B
:1000B8000030AE0035088039B6003608BB06350872
:1000C800B6003607B7003708BC00B41F6C286D2887
:1000D8006E283C143C0803197228732882283C0AAD
:1000E800031D7728782880280030B5000030B40038
:1000F8000030B3000030B200B4178A280030B500D1
:100108000030B4000030B3000030B2003C080319DE
:100118008E288F2894284108031D932894289D2809
:100128000030B1000030B0000030AF000030AE0049
:10013800902B2E08B6003608F50034080A128A11EA
:1001480026270A128A11760883120313C700750836
:10015800C6004608B600B701B801B9013908C000A1
:100168003808BF003708BE003608BD004708B6008B
:10017800B701B801B9013908C5003808C400370803
:10018800C3003608C2002F08B6003608F500330849
:100198000A128A1126270A128A1176088312031373
:1001A800C7007508C6004608B600B701B801B9010E
:1001B8003608BD07370803110318013E0319E5285F
:1001C800BE07380803110318013E0319EC28BF07BE
:1001D800390803110318013E0319F328C00747081B
:1001E800B600B701B801B9013608C20737080311CC
:1001F8000318013E03190129C3073808031103181E
:10020800013E03190829C407390803110318013EE0
:1002180003190F29C5073008B6003608F50032085B
:100228000A128A1126270A128A11760883120313E2
:10023800C7007508C6004608B600B701B801B9017D
:100248003608BD07370803110318013E03192D2985
:10025800BE07380803110318013E03193429BF07E4
:10026800390803110318013E03193B29C007470841
:10027800B600B701B801B9013608C207370803113B
:100288000318013E03194929C30738080311031845
:10029800013E03195029C407390803110318013E08
:1002A80003195729C5070830B6000310BD0DBE0D48
:1002B800BF0DC00DB60B59292F08B6003608F5003A
:1002C80032080A128A1126270A128A11760883121E
:1002D8000313C7007508C6004608B6004708B700EC
:1002E800B801B9013608BD07370803110318013EE4
:1002F80003197F29BE07380803110318013E0319A3
:100308008629BF07390803110318013E03198D29EF
:10031800C0072E08B6003608F50033080A128A11FD
:1003280026270A128A11760883120313C700750854
:10033800C6004608B6004708B700B801B901360834
:10034800BD07370803110318013E0319AC29BE077E
:10035800380803110318013E0319B329BF073908E8
:1003680003110318013E0319BA29C0070830B60063
:100378000310BD0DBE0DBF0DC00DB60BBC292E0858
:10038800B6003608F50032080A128A1126270A1222
:100398008A11760883120313C7007508C600460839
:1003A800B6004708B700B801B9013608BD073708D5
:1003B80003110318013E0319E229BE073808031187
:1003C8000318013E0319E929BF0739080311031867
:1003D800013E0319F029C0072F08B6003608F500BA
:1003E80034080A128A1126270A128A1176088312FB
:1003F8000313C7007508C6004608B6004708B700CB
:10040800B801B9013608C207370803110318013EBD
:1004180003190F2AC307380803110318013E0319EB
:10042800162AC407390803110318013E03191D2AA7
:10043800C5073008B6003608F50033080A128A11D5
:1004480026270A128A11760883120313C700750833
:10045800C6004608B6004708B700B801B901360813
:10046800C207370803110318013E03193C2AC307C2
:10047800380803110318013E0319432AC407390831
:1004880003110318013E03194A2AC5073008B600AC
:100498003608F50034080A128A1126270A128A112A
:1004A800760883120313C7007508C6004608B6000D
:1004B8004708B700B801B90108300310B60DB70DE9
:1004C800B80DB90DFF3E031D612A3608C20737086B
:1004D80003110318013E0319722AC30738080311D0
:1004E8000318013E0319792AC407390803110318B0
:1004F800013E0319802AC5073D08B6003E08B7002B
:100508003F08B8004008B90018300310B90CB80CFF
:10051800B70CB60CFF3E031D892A3608C2073708F8
:1005280003110318013E03199A2AC3073808031157
:100538000318013E0319A12AC40739080311031837
:10054800013E0319A82AC5070830B6000310BD0DDF
:10055800BE0DBF0DC00DB60BAA2A41083C07B60058
:10056800B701B70D3608823EC60037080318013EAA
:10057800FF3EC700DC2A0130B6000310C20DC30DD0
:10058800C40DC50DB60BC12AC01FCB2ACC2ACD2A53
:1005980042140130B6000310BD0DBE0DBF0DC00DD5
:1005A800B60BCF2AFF30C6070318C70AFF30C707A4
:1005B800C41FDF2AE02ABF2ABC01C01FE42AE52A9B
:1005C800012BFF303D05B600FF303E05B700FF3078
:1005D8003F05B8007F304005B900390838043704B2
:1005E80036040319F82AF92AFC2ABC01BC0A012B93
:1005F800421CFF2A002B012BF92A3C080319052B62
:10060800062B372B0130C207003003180130C3070F
:10061800003003180130C407003003180130C50743
:10062800451C172B182B372B4208B6004308B70078
:100638004408B8004508B9000130BA00390DB90CB2
:10064800B80CB70CB60CBA0B222B3908C500380801
:10065800C4003708C3003608C2000130C6070318B3
:10066800C70A0030C7074708803AFF0080307F027A
:10067800031D402BFF304602031C432B442B4F2BFA
:100688007F3083120313C5008030C4000030C300DC
:100698000030C200842B831203134708803AFF00FE
:1006A80080307F02031D5A2B0130460203185D2B50
:1006B8005E2B6A2B003083120313C5000030C40080
:1006C8000030C3000030C200BB01842B8312031327
:1006D8004608B6003608C100FF30C205FF30C30522
:1006E8007F30C4050030C505411C7B2B7C2B7D2B3E
:1006F800C4174108B6000310360CB7003708C50008
:100708003B08B6003608C5044508B1004408B000E7
:100718004308AF004208AE00080083120313A80084
:1007280028080319982B992BAD2BA31F9C2B9D2BC5
:10073800AD2B2009AA002109AB002209AC0023092E
:10074800AD00AA0A0319AB0A0319AC0A0319AD0ACA
:10075800B52B2308AD002208AC002108AB00200807
:10076800AA002308220421042004031DBC2BBD2B4E
:10077800C62B0030A3000030A2000030A1000030DA
:10078800A0004C2C9630A4002408A900D82B0130D6
:10079800A4002408A90701300310AD0CAC0CAB0C65
:1007A800AA0CFF3E031DD02BFE302D05031DDD2BAB
:1007B800DE2BCB2BFA2B0130A4002408A90701302B
:1007C800AA07003003180130AB07003003180130C6
:1007D800AC07003003180130AD0701300310AD0C31
:1007E800AC0CAB0CAA0CFF3E031DF22BFF302D0501
:1007F800031DFF2B002CDF2B0C2C0130A90201302C
:10080800A4000310AA0DAB0DAC0DAD0DA40B052C67
:10081800AC1B0F2C102C162C023029020318152C97
:10082800162C012C2918192C1A2C222CFF30AA0559
:10083800FF30AB057F30AC05FF30AD050310A90CC8
:100848002908A400A501A601A70118300310A40DCA
:10085800A50DA60DA70DFF3E031D2A2C2408AA04EA
:100868002508AB042608AC042708AD04280803199A
:100878003E2C3F2C442CA31F422C432C442CAD1758
:100888002D08A3002C08A2002B08A1002A08A0000C
:100898000800831203136208A0006308A100003057
:1008A800A11BFF30A200A30001300A128A11912374
:1008B8000A128A11831203132308B5002208B40010
:1008C8002108B3002008B2003C30B100A030B000CD
:1008D800A030AF00A130AE000A128A1130200A12EF
:1008E8008A11831203133108D8003008D7002F0863
:1008F800D6002E08D5005808B5005708B400560889
:10090800B3005508B2004230B100C830B000003022
:10091800AF000030AE000A128A1130200A128A1184
:10092800831203133108CB003008CA002F08C9000E
:100938002E08C8000A128A11FC240A128A1183128E
:1009480003134908E1004808E0006430A0000030C3
:10095800A1006108A3006008A2000A128A114F26AC
:100968000A128A11831203132008D3005308E400E3
:100978006430A0000030A1006108A3006008A20054
:100988000A128A11E6250A128A1183120313210812
:10099800DF002008DE000A30A0000030A100640853
:1009A800D300D4015308A2005408A3000A128A11E4
:1009B800E6250A128A11831203132108DD00200894
:1009C800DC000A30A0000030A1006408D300D40184
:1009D8005308A2005408A3000A128A114F260A12CB
:1009E8008A11831203132108DB002008DA000800AB
:1009F8000310831203134A0D4B0DCC004C08D20090
:100A08005208031D082D092D122D0030CB0000308F
:100A1800CA000030C9000030C800772D4808CC0053
:100A28004908CD004A08CE004B08CF001F300310FC
:100A3800CF0CCE0CCD0CCC0CFF3E031D1B2D4C084F
:100A4800D0005008D100CA17FF30C805FF30C905CB
:100A5800FF30CA050030CB059630D202D21F352DA3
:100A6800362D502D5208803A973E03183C2D3D2DC7
:100A78003E2D092D01300310CB0CCA0CC90CC80C33
:100A8800FF3E031D3F2D0130CC004C08D207031D4B
:100A98004E2D4F2D3E2D672D20305202031C552D13
:100AA800562D622D092D0130CC000310C80DC90D3B
:100AB800CA0DCB0DCC0B592D0130D2025208031DA3
:100AC800662D672D572D510803196B2D6C2D772D29
:100AD800C809C909CA09CB09C80A0319C90A0319E7
:100AE800CA0A0319CB0A0800831203130C1F7D2DB1
:100AF8007E2D9C2D1F0CF000700C0F39003A031D41
:100B0800862D872D8F2D1E08F000F1017008E20058
:100B18007108E3009A2D1F0CF000700C0F39013A90
:100B2800031D972D982D9A2D1E0888000C13DD2D76
:100B38000B1D9F2DA02DDD2D0B11F8308100890193
:100B480077087804031DA92DAA2DB72D5A08653EEC
:100B58008400831300088700091009150130F70085
:100B68000030F800DD2D77037804031DBC2DBD2D62
:100B7800CA2D5C08653E84008313000887000911AC
:100B880089140230F7000030F800DD2D02307706B6
:100B98007804031DD02DD12DDD2D5E08653E84001F
:100BA800831300088700871789100914F701F801D3
:100BB800DD2D74088A0073088400720E8300FE0E0F
:100BC8007E0E090083120313A501A11FEC2DED2D44
:100BD800F42DA009A109A00A0319A10AA501A50AD3
:100BE800A31FF72DF82D012EA209A309A20A0319A4
:100BF800A30A0130F5007508A506A601A70120087B
:100C080021040319082E092E402EA401A40A172E28
:100C180001300310A00DA10DFF3E031D0D2E013064
:100C2800F5007508A407A11F1A2E1B2E0C2E0130E3
:100C38000310A60DA70DFF3E031D1C2E210823023D
:100C4800031D282E20082202031C2B2E2C2E332EA7
:100C58002008A2022108031CA303A30226140130C2
:100C68000310A10CA00CFF3E031D342E0130A4027A
:100C7800031D3F2E402E1B2E25080319442E452EFA
:100C88004A2EA609A709A60A0319A70A2708A10038
:100C98002608A000080083120313A501A31F552EE0
:100CA800562E5D2EA209A309A20A0319A30AA501BB
:100CB800A50AA11F602E612E662EA009A109A00A0F
:100CC8000319A10A2008210403196B2E6C2E9B2EF0
:100CD800A401A40A7A2E01300310A00DA10DFF3E35
:100CE800031D702E0130F5007508A407A11F7D2E85
:100CF8007E2E6F2E21082302031D842E2008220237
:100D0800031C872E882E8E2E2008A2022108031C81
:100D1800A303A30201300310A10CA00CFF3E031D86
:100D28008F2E0130A402031D9A2E9B2E7E2E25089D
:100D380003199F2EA02EA52EA209A309A20A031902
:100D4800A30A2308A1002208A00008000330831684
:100D58000317880089010330831603138500831263
:100D68000313850183160313870188018901831200
:100D78000313870188018901831603130F088F392C
:100D880060388F000F14831203131F083F3940384F
:100D98009F00831603131F129F16C3308312031379
:100DA8009F05831603139F13831203131F140D301B
:100DB800F500F50BDD2E8B170B178B160B11831611
:100DC80003130C17831203130C1308000A128A1159
:100DD800AA260A128A110A128A1162270A128A118D
:100DE8000A128A114D240A128A11831203139F18BA
:100DF800FE2EFF2EF42E1F0CD900590C0F39003A85
:100E0800031D072F082F0D2F1F08C33904389F0013
:100E1800182F1F0CD900590C0F39013A031D152F33
:100E2800162F182FC3309F050C3083120313D900D7
:100E3800D90B1C2F0000831203139F14F42E0A12DF
:100E48008A110E2883120313A600A201A3017508B4
:100E5800A000A1012008A4002108A500261C352F08
:100E6800362F3C2F2408A2070318A30A2508A30736
:100E780001300310A40DA50DFF3E031D3D2F0310E7
:100E8800A60C2608031D492F4A2F322F2308F600E7
:100E98002208F50008007E088A007F0882000A12EE
:100EA8008A114F270A128A118000840A04087D06D5
:100EB80003190034FF0A0319FE0A532F831603137C
:100EC800811281110114811401150B11F83083125C
:100ED8000313810008003F3406345B344F34663412
:0A0EE8006D347D3407347F346F341D
:08400000FF3FFF3FFF3FFF3FC0
:04400E00D420FF3F7C
:00000001FF
