:060000000A128A110C280F
:10000800FE00030EF1000A08F2000A128A114D28B8
:100018000A128A110F2883010A128A1166280130F0
:10002800831603178800890101308316031385009E
:1000380083120313850183160313870183120313A5
:100048008701831603130F088F3960388F000F1448
:10005800831203131F083F3940389F008316031388
:100068001F129F16C330831203139F0583160313B1
:100078009F13831203131F140D30F300F30B422850
:100088008B170B17831603130C17831203130C1308
:100098000800831203130C1F522853285F281F0CD3
:1000A800F000700C0F39003A031D5B285C285E28AD
:1000B8001E0887000C1372088A00710E8300FE0E5A
:1000C8007E0E09000A128A1113200A128A1183125D
:1000D80003139F18702871286B289F146B280A1225
:0400E8008A110C2845
:08400000FF3FFF3FFF3FFF3FC0
:04400E00D420FF3F7C
:00000001FF
