:060000000A128A110C280F
:10000800FE00030EF1000A08F2000A128A117E2887
:100018000A128A110F2883010A128A114F28033005
:10002800831603178800890103308316031385009C
:100038008312031385018316031387018801831232
:10004800031387018801831603130F088F3960385B
:100058008F000F14831203131F083F3940389F0085
:10006800831603131F129F16C330831203139F05B1
:10007800831603139F13831203131F140D30F30009
:10008800F30B44288B170B17831603130C178312D3
:1000980003130C1308000A128A1113200A128A117A
:1000A800831203139F1859285A2854281F0CF40048
:1000B800740C0F39003A031D6228632868281F084A
:1000C800C33904389F0073281F0CF400740C0F39CF
:1000D800013A031D702871287328C3309F050D301D
:1000E800F400F40B7528831203139F1454280A1282
:1000F8008A110C28831203130C1F832884289C2838
:100108001F0CF000700C0F39003A031D8C288D2845
:1001180090281E0887009B281F0CF000700C0F39D0
:10012800013A031D982899289B281E0888000C135B
:0E01380072088A00710E8300FE0E7E0E090012
:08400000FF3FFF3FFF3FFF3FC0
:04400E00D420FF3F7C
:00000001FF
